:020000041000EA
:1000000000B5324B212058609868022188439860DF
:10001000D860186158612E4B002199600221596106
:100020000121F02299502B49196001219960352056
:1000300000F044F80222904214D00621196600F024
:1000400034F8196E01211966002018661A6600F04E
:100050002CF8196E196E196E052000F02FF8012189
:100060000842F9D1002199601B49196000215960AB
:100070001A491B48016001219960EB211966A021F2
:10008000196600F012F800219960164914480160C1
:100090000121996001BC002800D000471248134993
:1000A000086003C880F30888084703B5996A0420EC
:1000B0000142FBD001200142F8D103BD02B5186610
:1000C0001866FFF7F2FF186E186E02BD00000240BE
:1000D000000000180000070000035F00212200005C
:1000E000F4000018222000A00001001008ED00E03C
:1000F00000000000000000000000000074B24E7A12
:1001000000200420F7010010C3010010C5010010F9
:10011000C1010010C1010010C1010010C101001097
:10012000C1010010C1010010C1010010C701001081
:10013000C1010010C1010010C9010010CB01001065
:10014000CD010010CD010010CD010010CD01001037
:10015000CD010010CD010010CD010010CD01001027
:10016000CD010010CD010010CD010010CD01001017
:10017000CD010010CD010010CD010010CD01001007
:10018000CD010010CD010010CD010010CD010010F7
:10019000CD010010CD010010CD010010CD010010E7
:1001A000CD010010CD010010CD010010CD010010D7
:1001B000CD010010CD010010CD010010CD010010C7
:1001C00000BE00BE00BE00BE00BE00BEEFF3058054
:1001D000103800BEF2EB88716CC2001098C200109B
:1001E0003402001090A31AE700201F49086006C8D7
:1001F00081F3088810471D48006800282FD10DA4FE
:100200000ECC002902D000F012F8F9E71849194A7B
:10021000002000E001C19142FCD1174988471749ED
:1002200088471749884700BEFDE701C901C29A42C5
:10023000FBD3704798C20010C00000202815002092
:1002400000D70010000004200000042000D7001098
:10025000001004200010042000000000704709482E
:1002600005F008F80047000008ED00E0000000D0AD
:10027000281500200C250020FD3F0010F103001080
:10028000B93F00105756000006005250ABB3605300
:1002900078BB001006005250861C030288BB001079
:1002A000060052505422A29D9CBB001005005250E3
:1002B000DE65F46800D70010F8B5C04610B5064CEE
:1002C0002378002B07D1054B002B02D0044800E017
:1002D00000BF0123237010BD48160020000000005D
:1002E00098AC0010044B10B5002B03D00349044810
:1002F00000E000BF10BDC046000000004C1600200A
:1003000098AC001010B501F02FF810BD10B5012801
:1003100000D010BD0B4B9942FBD168220A490B4813
:1003200000F084FD20220A4B19680A4809F06AFF90
:10033000094B00221A605A609A60DA601A615A61A9
:10034000E7E7C046FFFF0000B80C00209421002022
:10035000B80B00205C1D00201C22002000B585B0D9
:10036000084807F019F902F073FD074B02930023C8
:100370000193064B0093FA229200002302F0B0FE94
:1003800005B000BD98AC00103016002065090010C3
:10039000D0231B065B689B0105D4D0231B0680225B
:1003A00092045A617047D0231B06802292049A61FE
:1003B000F8E7000010B50D4C230001220C210A20A3
:1003C00001F01EFD230001220C210C2001F018FD7C
:1003D000230001220C210E2001F012FD2300012236
:1003E0000C21102001F00CFD10BDC04605030010CB
:1003F00070B507F00DF900F0A7FE00F0B7FE00F0B1
:10040000E1FE00F081FF00F091FF164C0022002178
:10041000200009F035FF0021200009F046FF1248B6
:1004200002F0AAFF114B5C680021201C06F00CFDB5
:1004300000280FD00D4B00225A610D4B18680D4B50
:10044000196806F0A5FD0C4B1860FFF7B3FFFFF726
:1004500085FFFEE7054D211CE86806F099FD6861FF
:10046000EBE7C0465C1D002010270000701D002037
:10047000C00B0020BC0B0020AC24002010B50C4C9D
:10048000200000F0E3FC200000F05AFD094B18604A
:10049000200000F09DFD084B1860200000F052FE87
:1004A000064B1860200000F02BFE054B186010BDB5
:1004B00094210020801B0020881D0020901B00201C
:1004C000A824002070B50E0005F00CFA04000D0001
:1004D0000022264B05F08DF905F04CFA244B1860EC
:1004E000002E23D00022234B2000290005F081F9A3
:1004F0000022214B05F07DF90022204B05F049F93F
:1005000002000B0000201E4905F055F900221D4B8A
:1005100005F03FF905F022FA80B21B4B18805028F5
:1005200001D950221A80184B188870BD0022114B37
:100530002000290005F05DF900220F4B05F059F964
:10054000124A134B05F0B4FD124A134B05F051F952
:100550000022124B05F01DF905F000FA80B20A4B9B
:1005600018809628DFD996221A80DCE70000543FD5
:10057000E016002000F88F400000303F00002240CD
:10058000006ABA4000001040CE240020EC51B81E92
:1005900085EBEDBFD7A3703D0ACDC44000002440D9
:1005A000F0B5D6464F464646C0B504000F1C151C94
:1005B000466843699946FC218905381C06F013FCFE
:1005C000011C484606F0F4FB804606F0B9FC291CE5
:1005D00006F009FC011C301C06F0EAFB061C20603A
:1005E000E3689A46404606F0BFFC011C281C06F052
:1005F000FAFB011C504606F0DBFB051CA060391C11
:10060000484606F0D5FB206160616660E560E0BCAD
:10061000BA46B146A846F0BDF0B5CE46474680B5CD
:1006200093B0B54D0AACB549200001F0B9F82B00E4
:1006300007CC07C307CC07C306CC06C32A68696882
:10064000AF4C2000FFF7ACFFAE4B1868216806F0F6
:10065000AAFB4000400806F069FCAB4AAB4B05F032
:1006600019F9002810D0AA4B1868A54B996806F014
:100670009AFB4000400806F059FCA34AA34B05F042
:1006800009F9002800D0B2E0A24B01221A70A24B57
:100690001B78002B00D0E6E0994B19699F4B186836
:1006A00006F081FB041C9E4B1860002106F0CCFB79
:1006B000002800D010E19B4D9B4B2B6000239B4AF0
:1006C0009B49201C01F0B6FA041C9A4B186028685C
:1006D000011C06F06DFB06F029FC06000F00201C33
:1006E00006F024FC944A954B05F083F804000D00B5
:1006F00002000B003000390005F054F8904A914B8D
:1007000005F059F805F036F980468F4B1860220045
:100710002B003000390005F03CF8894A894B05F080
:100720004AF805F027F9051C884B1860404606F08A
:10073000FDFB0022864B05F05CF80022854B05F09E
:100740003AF802004B001000590805F007F984B28E
:10075000814B1C80281C06F0E9FB00227C4B05F035
:1007600048F800227B4B05F026F802004B001000F1
:10077000590805F0F3F880B2784B18802300220066
:10078000010000F0D9FA00F04BFA5E4B1868604B9C
:100790001E685B4B1F689A6890461B69994606F075
:1007A000C5FB04000D00484606F0C0FB0890099107
:1007B0005A4B186806F0BAFB06900791404606F0BF
:1007C000B5FB04900591381C06F0B0FB0290039134
:1007D000301C06F0ABFB0090019122002B0060481A
:1007E00006F00AFF13B0C0BCB946B046F0BD002306
:1007F00000220021002000F09FFA00F057FA414B40
:100800001868434B1E683E4B1F689A6890461B69E8
:10081000994606F08BFB04000D00484606F086FB67
:10082000089009913E4B186806F080FB06900791EE
:10083000404606F07BFB04900591381C06F076FBE1
:1008400002900391301C06F071FB00900191220090
:100850002B00434806F0D0FE2E4B00221A702E4B80
:1008600001321A70BEE7002300220021002000F0B0
:1008700063FA00F01BFA2B4B00221A60214B186818
:10088000234B1E681E4B1F689A6890461B69994649
:1008900006F04CFB04000D00484606F047FB0890AC
:1008A00009911F4B186806F041FB069007914046DE
:1008B00006F03CFB04900591381C06F037FB0290D3
:1008C0000391301C06F032FB0090019122002B00B6
:1008D000234806F091FE85E7002300220021002036
:1008E00000F02AFA00F0E2F90E4B00221A600A4BDF
:1008F00001221A7076E7C046881600201C220020CC
:10090000701D0020BC0B00209A9999999999B93FC4
:10091000C00B002006250020F0240020AC2400207D
:10092000D8160020DC160020CDCC4C3D0AD7233D44
:1009300000002041CC160020E3A59BC420B0C23F9C
:100940007B14AE47E17AB43FD4160020D0160020C5
:100950000000B04000002840CC240020CA24002021
:10096000A4AC0010F0B5CE46474680B583B08F4B9F
:100970001B88312B18D801338C4A13808C4B1B8871
:10098000002B00D007E10133894A1380894B1B8873
:10099000C72B00D905E10133864A1380012003B03B
:1009A000C0BCB946B046F0BDFFF7F2FC824CE08A0D
:1009B0000021FFF787FD814B1870208B0121FFF785
:1009C00081FD7F4B1870608B0221FFF77BFD7D4B13
:1009D0001870A08B0321FFF775FD7B4B1870FFF794
:1009E0004DFD7A4B1B78002B00D0B7E0784B1B688D
:1009F0009946181C06F09AFA04000D00754B1F6802
:100A0000754B1968386806F0D3F906F08FFA734A07
:100A1000734B04F0EEFE0022724B04F0EAFE02007B
:100A20000B002000290004F0BDFE04F0A3FF061C0B
:100A30006D4B18606D4B1B689846181C06F076FAD3
:100A400004000D006A4B1968786806F0B1F906F0E9
:100A50006DFA624A624B04F0CCFE0022614B04F056
:100A6000C8FE02000B002000290004F09BFE04F0E9
:100A700081FF041C5F4B18605F4B1D68281C06F04B
:100A800055FA00900191B8685C4B196806F090F92E
:100A900006F04CFA514A524B04F0ABFE0022514B87
:100AA00004F0A7FE02000B000098019904F07AFE02
:100AB00004F060FF071C524B1860311C484606F0DA
:100AC00077F906F033FA454A454B04F092FE0022CE
:100AD000444B04F08EFE009001914A4E306806F0BF
:100AE00025FA009A019B04F05DFE04F043FF30609C
:100AF000211C404606F05CF906F018FA374A384BDC
:100B000004F077FE0022374B04F073FE0090019151
:100B10003D4C206806F00AFA009A019B04F042FE60
:100B200004F028FF2060391C281C06F041F906F06B
:100B3000FDF92A4A2A4B04F05CFE0022294B04F0FE
:100B400058FE04000D00314E306806F0EFF9220027
:100B50002B0004F027FE04F00DFF30601D4B1B68D6
:100B60001D4A19681160224A596811609A68234B1E
:100B70001A601D4B1A68164B1A601E4B1A681B4BE5
:100B80001A601F4B1A681C4B1A60FFF745FD074B94
:100B900001221A80F2E600F033FE054B01221A8092
:100BA000F4E6044B01221A80F8E6C046B00B0020A0
:100BB000B20B0020B40B002068230020FF2400208B
:100BC0000225002003250020FC240020F024002022
:100BD00070160020801B0020841B00209A99999990
:100BE0009999A93F0000E03F7C1600207416002070
:100BF000881B002080160020781600208C1B002007
:100C00008416002064160020681600206C16002050
:100C100010B502490120FFF779FB10BDFFFF00006E
:100C200010B5214C00220821200009F044FB2000CF
:100C300009F051FB01220921200009F03CFB2000B2
:100C400009F049FB00220C21200009F034FB2000B0
:100C500009F041FB01220D21200009F02CFB2000AE
:100C600009F039FB01220A21200009F024FB2000B1
:100C700009F031FB00220B21200009F01CFB2000B1
:100C800009F029FB01220E21200009F014FB2000AD
:100C900009F021FB00220F21200009F00CFB2000AD
:100CA00009F019FB10BDC0465C1D002010B5214C99
:100CB00000220821200009F0FEFA200009F00BFBB9
:100CC00000220921200009F0F6FA200009F003FBB8
:100CD00000220C21200009F0EEFA200009F0FBFAB6
:100CE00000220D21200009F0E6FA200009F0F3FAB5
:100CF00000220A21200009F0DEFA200009F0EBFAB8
:100D000000220B21200009F0D6FA200009F0E3FAB6
:100D100000220E21200009F0CEFA200009F0DBFAB3
:100D200000220F21200009F0C6FA200009F0D3FAB2
:100D300010BDC0465C1D002030B50D4D2C686040D4
:100D40000004000C0B4C2060090428684140090C89
:100D500009042160084801684A401204120C07493E
:100D60000A601B04026853401B0C1B040B6030BD5F
:100D7000200005402010054048000540481005406F
:100D800070B584B0040015001E000F226A44117073
:100D9000017901230093006809F01CFA2179206889
:100DA0000023009333002A0009F020FA04B070BD3C
:100DB00010B582B0040006236A464321FFF7E0FF26
:100DC0006B461A7812025B7813435222A3526B4689
:100DD0009A781202DB7813435422A3526B461A7995
:100DE00012025B7913435622A35202B010BD10B514
:100DF00082B0040006236A463B21FFF7C1FF6B4621
:100E00001A7812025B7813434C22A3526B469A78ED
:100E10001202DB7813434E22A3526B461A79120258
:100E20005B7913435022A35202B010BD01600271DE
:100E300000238362C362036300220272C361036200
:100E400043624272027542758275704770B582B016
:100E5000040000225223C2520233C2520233C25251
:100E60000A3BC2520233C2520233C25200234366CB
:100E70008366C3668365C36503667C214252803204
:100E8000835004328350837D002B43D1637D002B3C
:100E900043D1237D002B44D16B46DD1D01232A0065
:100EA0003A212000FFF76CFF2B781A0901252A4010
:100EB00040216254D9094122A1545A092A404221B1
:100EC00062549B092B404322A3544A230022E2543C
:100ED0006B469E1D012332001F312000FFF750FF9B
:100EE0003378D9094722A1549A092A4044216254EF
:100EF0005A092A40043162541A092A4003396254BB
:100F0000DA082A40043162549B081D404623E55408
:100F100002B070BDFFF74CFFB8E72000FFF767FF96
:100F2000B7E7022301AA41212000FFF729FF6B4602
:100F30001A7912025B7913437C22A352ACE70000BA
:100F400070B504000021806D05F07EFF002837D0C9
:100F50000021E06D05F078FF002831D00021206EDF
:100F600005F072FF00282BD0E36C002B03D1503327
:100F7000E35E002B27D04C23E05E256905F072FF6D
:100F8000291C05F030FF114905F02DFFA0654E2307
:100F9000E05E05F067FF291C05F025FF0B4905F011
:100FA00022FFE0655023E05E05F05CFF291C05F0A0
:100FB0001AFF064905F017FF20662000583001E0AF
:100FC0002000583070BD0020FCE7C0460AE81C41F4
:100FD00070B504000021406E05F036FF002870D087
:100FE0000021A06E05F030FF00286AD00021E06EDD
:100FF00005F02AFF002864D0E36C002B04D15033A5
:10100000E35E002B00D179E0237A002B5CD05223E1
:10101000E05EA56A05F026FF291C05F0C4FEE56820
:10102000291C05F0E0FE60665423E05EE66A05F0E8
:1010300019FF311C05F0B7FE011C281C05F0D3FE7A
:10104000A0665623E05E266B05F00CFF311C05F010
:10105000AAFE011C281C05F0C6FEE066637A002B80
:101060002CD0606E05F020FFC317C018584005F063
:10107000F9FEE16905F0F0FE002801D00023636667
:10108000A06E05F011FFC317C018584005F0EAFE26
:10109000216A05F0E1FE002801D00023A366E06E7E
:1010A00005F002FFC317C018584005F0DBFE616A67
:1010B00005F0D2FE002801D00023E3662000643052
:1010C00001E02000643070BD5223E05EE56805F069
:1010D000C9FE291C05F087FE60665423E05E05F01A
:1010E000C1FE291C05F07FFEA0665623E05E05F0D8
:1010F000B9FE291C05F077FEE066AFE70020E2E7C5
:1011000070B504008023C5580021281C05F09CFE02
:10111000002804D07C23E05E002802D10025281C92
:1011200070BD05F09FFE054905F047FE044905F036
:101130003FFE051C8023E050F1E7C0460000AA43B3
:10114000B81E12424030704710B5054800F0D7FE77
:10115000D0231B06034A9A62034A5A6210BDC04656
:10116000FFFF7F0E02FE430CED013C0210B508F0BC
:101170005FFE1F211A2000F0B7FD002200211A2077
:1011800000F0CAFD00211A2000F096FE1F211B204E
:1011900000F0AAFD002200211B2000F0BDFD00216F
:1011A0001B2000F089FE054B00221A611B68E0221B
:1011B000D2011340024A136010BDC04600C0044073
:1011C00000D00440F8B5DE4657464E464546E0B5E9
:1011D0000421022000F088FD0421032000F084FD9A
:1011E0000421062000F080FD0421072000F07CFD92
:1011F00001243A4B1C803A4B98461C80394E0323FD
:101200003380394A93461380384B1B689946384BD4
:1012100018684B46584304F061FB02000B000020A5
:10122000344904F0C8FA0022334B04F0B2FA04F057
:10123000A1FB824605F06AFEC7B2380005F012FE37
:10124000011C504605F0AFFD8321C90505F0CBFD1B
:1012500005F05CFEC3B238011843284B98614A463A
:101260001204120C5A62264B1B6821009943254B2D
:10127000196043461F88BB00D91989001F4DAC4631
:10128000614448600A61DB199B00634419682700C8
:101290008F43802149010B431F603788BB00DE1953
:1012A000B600664470603261330036682700B74389
:1012B0000B431F605B461E88B3009D19AD0065445B
:1012C00068602A612B002A6894430B431C60F0BCC1
:1012D000BB46B246A946A046F8BDC046E824002059
:1012E000EA240020EC240020EE240020CCAC0010E6
:1012F000C8AC0010ADB59F410000F03F00000540B4
:10130000140005401410054010B5E12149020648BB
:1013100002F0D4FB0221012000F0E6FC02210020B3
:1013200000F0E2FC10BDC0460040034010B50C4B7D
:1013300018680C4908F022FF0321042000F0D4FCB7
:101340000321052000F0D0FC00220121042000F040
:10135000E3FC00220121052000F0DEFC10BDC046A8
:10136000B80B0020801A060030B5D0200006436874
:101370009B0A01242340324A13704268120B224018
:1013800030490A704168890B21402F4D297040680F
:10139000000C20402D4C20702D4C2478A34216D2F6
:1013A000D0242406646824050CD52A4D2C880134E9
:1013B0002C80274C2370284B1A70284B1970284B0F
:1013C000187030BD234D2C88013C2C80F1E7224C55
:1013D0002478A2420ED2D02424066468A40404D542
:1013E000204D2C8801342C80E3E71E4D2C88013CD5
:1013F0002C80DEE7194C2478A1420ED2D02424069A
:101400006468240404D5184D2C88013C2C80D0E756
:10141000154D2C8801342C80CBE7114C2478A04248
:10142000C7D2D02424066468A40304D50F4D2C88A9
:10143000013C2C80BDE70D4D2C8801342C80B8E791
:10144000F1240020F2240020F3240020F4240020C2
:10145000F5240020E0240020F6240020F7240020BA
:10146000F8240020E2240020E4240020E6240020C8
:1014700070B50C4B00255D5F0B4C2088281A00B21C
:101480000A4B188004F02EFA094A0A4B04F0B1F90D
:101490000022094B04F08FF904F06CFA074B186036
:1014A000258070BDE0240020D0240020D824002016
:1014B0007A008BFCFA21194000803040E4160020AD
:1014C00070B50C4B00255D5F0B4C2088281A00B2CC
:1014D0000A4B188004F006FA094A0A4B04F089F90D
:1014E0000022094B04F067F904F044FA074B186036
:1014F000258070BDE2240020D2240020DA240020C0
:101500007A008BFCFA21194000803040E816002058
:1015100070B50C4B00255D5F0B4C2088281A00B27B
:101520000A4B188004F0DEF9094A0A4B04F061F90D
:101530000022094B04F03FF904F01CFA074B186035
:10154000258070BDE4240020D4240020DC24002069
:101550007A008BFCFA21194000803040EC16002004
:1015600070B50C4B00255D5F0B4C2088281A00B22B
:101570000A4B188004F0B6F9094A0A4B04F039F90D
:101580000022094B04F017F904F0F4F9074B186036
:10159000258070BDE6240020D6240020DE24002013
:1015A0007A008BFCFA21194000803040F0160020B0
:1015B00010B503000068596805F0FAFB05F0B6FCA9
:1015C000054A064B04F015F90022054B04F011F909
:1015D00004F0D0F910BDC0467B14AE47E17AA43FB9
:1015E0000000E03F10B503000068596805F0DBFB20
:1015F00005F09CFC054A064B04F0FBF8054A064B37
:1016000004F0D9F804F0B6F910BDC0467B14AE471B
:10161000E17AA43FE3A59BC420B0C23F10B504000B
:10162000C168806805F0C4FBFC21890505F0DBFB7F
:10163000206010BD10B504004169006905F0B8FBD9
:10164000FC21890505F0CFFB606010BD70B504007A
:101650001C4B00229B5E1C4A0020105E1B18D80FFA
:10166000C018401005F0FEFB051C184B1860184B05
:101670000020185E174B00229B5EC018C30F18187D
:10168000401005F0EFFB011C134B1860281C05F0FF
:101690008FFB011C05F08CFB05F048FC0F4A104B3A
:1016A00004F0A7F80F4A104B04F0A3F800220F4BE8
:1016B00004F081F800220E4B04F09BF804F05AF974
:1016C000E06170BDD8240020DA240020F816002044
:1016D000DC240020DE240020F4160020182D4454C1
:1016E000FB2109407B14AE47E17AA43F00A074407F
:1016F0000000E03F70B504001C4B00229B5E1C4ABA
:101700000020105E1B18D80FC018401005F0AAFB6F
:10171000051C184B1860184B0020185E174B002250
:101720009B5EC018C30F1818401005F09BFB011CEE
:10173000134B1860281C05F036FB011C05F038FB24
:1017400005F0F4FB0F4A104B04F053F80F4A104B0E
:1017500004F04FF800220F4B04F02DF80E4A0F4B07
:1017600004F029F804F006F9A06170BDD824002027
:10177000DA24002000170020DC240020DE240020D2
:10178000FC160020182D4454FB2109407B14AE4761
:10179000E17AA43F00A07440E3A59BC420B0C23FFF
:1017A00070B505000C00FFF763FEA060FFF788FE30
:1017B000E060FFF7ADFE2061FFF7D2FE6061A36835
:1017C0002B61E3686B612369AB616369EB612000A6
:1017D000FFF73CFF28602000FFF78CFF68602000C7
:1017E000FFF71CFF2000FFF725FF2000FFF7FAFEA0
:1017F000E8602000FFF7DCFEA860280070BD000054
:1018000000B5D44B1B780F2B00D905E29A00D249C2
:101810008A589746D14A04211160D14A1268D205EC
:10182000FBD5CF4A50685B00CE49C852D02109068B
:1018300008698023DB024340F02080030340CB6132
:101840001368E022D2011340C74A1360C14B012242
:101850001A7000BDC14A04211160C14A1268D20544
:10186000FBD5BF4A50685B00BE49C852D02109066B
:10187000086980231B034340F02080030340CB61B1
:101880001368E022D2011340B74A1360B14B022221
:101890001A70DEE7B14A04211160B14A1268D2051C
:1018A000FBD5AF4A50685B00AE49C852D02109064B
:1018B0000869C0231B034340F02080030340CB6131
:1018C0001368E022D2011340A74A1360A14B032200
:1018D0001A70BEE7A14A04211160A14A1268D2051C
:1018E000FBD59F4A50685B009E49C852D02109062B
:1018F000086980235B034340F02080030340CB61F1
:101900001368E022D2011340974A1360914B0422DE
:101910001A709EE7914A04211160914A1268D2051B
:10192000FBD58F4A50685B008E49C852D02109060A
:101930000869A0235B034340F02080030340CB6190
:101940001368E022D2011340874A1360814B0522BD
:101950001A707EE7814A04211160814A1268D2051B
:10196000FBD57F4A50685B007E49C852D0210906EA
:101970000869C0235B034340F02080030340CB6130
:101980001368E022D2011340774A1360714B06229C
:101990001A705EE7714A04211160714A1268D2051B
:1019A000FBD56F4A50685B006E49C852D0210906CA
:1019B0000869E0235B034340F02080030340CB61D0
:1019C0001368E022D2011340674A1360614B07227B
:1019D0001A703EE7614A04211160614A1268D2051B
:1019E000FBD55F4A50685B005E49C852D0210906AA
:1019F000086980239B034340F02080030340CB61B0
:101A00001368E022D2011340574A1360514B082259
:101A10001A701EE7514A04211160514A1268D2051A
:101A2000FBD54F4A50685B004E49C852D021090689
:101A3000086990239B034340F02080030340CB615F
:101A40001368E022D2011340474A1360414B092238
:101A50001A70FEE6414A04211160414A1268D2051B
:101A6000FBD53F4A50685B003E49C852D021090669
:101A70000869A0239B034340F02080030340CB610F
:101A80001368E022D2011340374A1360314B0A2217
:101A90001A70DEE6314A04211160314A1268D2051B
:101AA000FBD52F4A50685B002E49C852D021090649
:101AB0000869B0239B034340F02080030340CB61BF
:101AC0001368E022D2011340274A1360214B0B22F6
:101AD0001A70BEE6214A04211160214A1268D2051B
:101AE000FBD51F4A50685B001E49C852D021090629
:101AF0000869C0239B034340F02080030340CB616F
:101B00001368E022D2011340174A1360114B0C22D4
:101B10001A709EE6114A04211160114A1268D2051A
:101B2000FBD50F4A50685B000E49C852D021090608
:101B30000869D0239B034340F02080030340CB611E
:101B40001368E022D2011340074A1360014B0D22B3
:101B50001A707EE6F9240020D0AC001000E00440AA
:101B600000C004406823002000D004402C4A042117
:101B700011602C4A1268D205FBD52A4A50685B00D6
:101B80002949C852D02109060869E0239B03434034
:101B9000F02080030340CB611368E022D2011340A0
:101BA000224A1360224B0E221A7052E61C4A04216C
:101BB00011601C4A1268D205FBD51A4A50685B00B6
:101BC0001949C8521A4B0F211970126880235B0102
:101BD0005340E022D2011340144A136039E6104A00
:101BE000042111600F4A1268D205FBD50D4A5068D6
:101BF0005B000D49C852D02109060B69F020800313
:101C00000340CB611368E022D2011340074A1360FE
:101C1000074B00221A701CE6054B00221A7018E6CA
:101C200000E0044000C004406823002000D00440CD
:101C3000F9240020F0B5D6464F464646C0B5041CF0
:101C40008946101C1D1C05F071F9204A204B03F039
:101C5000D0FD03F08FFE8246281C05F067F91B4A71
:101C60001B4B03F0A8FD03F085FE8046194B1C605A
:101C7000194D2968201C05F09BF8061C2860174F99
:101C80003968201C05F08FF8051C154B1860494673
:101C9000201C05F0A8F881465146301C05F0A3F839
:101CA000011C484605F084F8061C4146281C05F036
:101CB0009AF8011C301C05F07BF80A4B18603C6058
:101CC000E0BCBA46B146A846F0BDC0469A9999997B
:101CD0009999A93FC4160020C0160020B81600200C
:101CE000BC160020C816002010B58300084A944690
:101CF00063441C6840226240C02414408022520188
:101D000013431C60C000034B9C466044416010BDFF
:101D100004C001400040014080000B4B9C466044E1
:101D200000290DD00823002A0CD004221343026896
:101D300053400C221340802252011043036070472D
:101D40000023F0E70022F1E704C0014070B5040071
:101D5000D0231B061D68AA000C4BD358002B0AD0B9
:101D6000002803D0AD00094BEC5070BD08490D2090
:101D700000F046FBF6E70028F7D0AD00034BE85033
:101D8000002203490D2000F021FAEEE7A41C0020F8
:101D9000211E0010072303409B00C00899403C30DF
:101DA0008000014BC150704700400140F8B507006A
:101DB0000C0016001D00FFF7EDFFFB089B00ED185F
:101DC0000720384080008440002E04D080239B01EF
:101DD0001D432C60F8BDC0239B011D432C60F9E717
:101DE00010B5D0231B061B68002B03D0024BFFF756
:101DF000DDFF10BD014BFAE73041014000410140D9
:101E000070B514001D00FFF7EBFF2800FFF79EFFE1
:101E1000002C00D170BD01210D2000F083F9F9E7FD
:101E2000F0B5D6464F464646C0B5D0231B061F68C0
:101E3000BA001D4BD3589846002F03D01B4B994630
:101E4000002623E01A4B9946FAE724090135002CB5
:101E50001BD033000833AB4217D90F231A0022409E
:101E600092462342F1D0BB00124A9A580123AB405C
:101E70001342EAD151462800FFF78CFF4346002B5E
:101E8000E3D051462800C047DFE708361D2E06D8AC
:101E9000F30808339B004A469C583500D7E7E0BC5E
:101EA000BA46B146A846F0BDA41C0020304101400E
:101EB0000041014058220020002909D08000094B30
:101EC0009C46604480239B01184340230360704775
:101ED0008000044B9C466044C0239B011843402370
:101EE0000360F4E704C0014010B501238340D02211
:101EF0001206936293610521FFF7F6FE10BD70B5DF
:101F00000500002401E06D0801341D2C05D8EB0705
:101F1000F9D52000FFF7E8FFF5E770BD034B1B681C
:101F200002201840431E9841C0B2704700C00640CE
:101F3000EFF3108072B6034B1B68002BFBD0BFF38E
:101F40005F8F70472C0100D0BFF35F8F024B0022E0
:101F50001A6080F3108870472C0100D0F8B5060095
:101F60000C001500FFF7E4FFE308F718F15C072207
:101F70002240012393400B4205D1DBB20B433B705F
:101F8000FFF7E2FFF8BD2100280002F0B3F8F0B53A
:101F900083B00600019114001F00FFF7C9FF00E0A5
:101FA0000134BC420CD8E308F518F35C072121404A
:101FB00001228A401A42F3D1D2B21A432A7001E0B8
:101FC00001246442FFF7C0FF002C02DB200003B0B5
:101FD000F0BD019B002BF9D0089802F08BF80000AF
:101FE000002307E0054A9A189200BFF35F8F002193
:101FF000116001331F2BF5D97047C04640000034F3
:10200000054A1078431CDBB21370172B02D913005A
:1020100010221A707047C046C40B002000B583B070
:102020000100044B00931F2318220348FFF7AFFF62
:1020300003B000BD10AD0010BC1C0020074B9B6816
:10204000103080001950BFF35F8FBFF35F8F044BD8
:102050000021196082F310887047C04600ED00E04F
:10206000240100D010B5091A081F0A4B9C46614490
:10207000094A914208D8C30706D440104005400DD4
:10208000064B184380B210BD054B064AA3210648F3
:1020900001F096FFFC070000FE0F000000E0FFFFCC
:1020A0002CAD001090AF00105CAD001010B5091AF7
:1020B00004394C08090B08D14905490D064A11435A
:1020C0000180064B2343438010BD054B054AAB21DD
:1020D000054801F075FFC04600F0FFFF00F8FFFF64
:1020E00090AD001064AF00105CAD00100123834080
:1020F000034A10681840431E9841C0B27047C0465A
:1021000000E100E0002904D0034B1860034B186085
:102110007047034B1860FBE780E200E000E100E05D
:1021200080E100E010B5012383401800FFF7EAFFCB
:1021300010BD000001238340014A13607047C04670
:1021400000E200E0024B9B6810308000C0587047EE
:1021500000ED00E010B5FFF7F5FF002805D0054BB6
:10216000C01A2F2803D8012010BD0020FCE7002052
:10217000FAE7C046C80B002070B504000D00EFF36D
:10218000108672B60C4B1B68002BFBD0BFF35F8F21
:102190002000FFF7D7FF094B984201D0A84205D194
:1021A000320029002000FFF749FF70BD044B054AAB
:1021B0008621054801F004FF240100D0CD01001064
:1021C000A0AD0010C4AF00105CAD0010F0B5DE464D
:1021D00057464E464546E0B589B081460191150007
:1021E000EFF3108A72B6744B1B68002BFBD0BFF361
:1021F0005F8F724B0027DF57002F40DB7C00E41914
:10220000A4006F4824180622A2566C4B1A706D4B1E
:102210009A684B4610339B00D35898461E001B1AF1
:102220002F2B38D9684B98452FD105AE674B33809B
:102230007B009B46D8198000614B98464044023091
:102240006349FFF70FFF7080624BB380FF23B371C8
:10225000F571019B07935F44BF0047440ECE0EC744
:1022600001231C43A046524641464846FFF7E6FE7E
:1022700009B0F0BCBB46B246A946A046F0BD564BDD
:10228000564AD721564801F09BFE564B534ADE2151
:10229000534801F095FEC04340440C2103F03EF842
:1022A000002912D101239E43B34633000026DA7978
:1022B000AA4211D90621595600290CDB4A005218AE
:1022C00092001E003E4B9B18F1E7474B434AEA2120
:1022D000434801F075FE1E00002E3AD005AB434A7C
:1022E0001A80813A5A800623F3560293002B17DA9C
:1022F0003F4805AB9B469880029A9A71DD71019A1E
:102300000792301D2100FFF7ADFEB080B7717B0052
:10231000DB199B002A4FFF185B4607CB07C7A2E7D4
:102320007800C0198000264BC0180430321DB388D5
:10233000D90A1C2907D15B055915023149005118EA
:10234000FFF790FED5E72B4B2B4AB121244801F033
:1023500037FE05AE1D4B33807B000293D8198000F9
:10236000174A9046020042440392901C1849FFF716
:1023700079FE7080039A101D5946FFF773FEB080F6
:102380001E4B5A464146521A524153431B0DB371DC
:10239000F571019A0792029B9C466744BF0047442F
:1023A0000ECE0EC7114B5A461380813B538001233A
:1023B0001C43A04657E7C046240100D0002500205A
:1023C000C80B002000ED00E0CD01001000A1FFFFD0
:1023D000F80B002001BDFFFFD8AD0010ACAF00101E
:1023E0005CAD001000AE001028AE001001480000E7
:1023F00001BD00009CAE00109CAF0010AAAA000016
:10240000F0B5CE46474680B583B006000D00EFF329
:10241000108872B6564B1B68002BFBD0BFF35F8F42
:10242000544B9A6834001034A300D758524B9F4243
:1024300007D0AF4200D198E00197504BFB1A2F2BE9
:1024400009D9424639003000FFF7F8FD03B0C0BC9F
:10245000B946B046F0BD3000FFF748FE8146002186
:102460003000FFF75FFEBFF35F8FEFF305810029B8
:1024700001D08C4211D10123019C9C430022A3680E
:10248000AB4212D00622A256002A0DDB53009B1845
:102490009B002200394CE418F1E73621384B394AC9
:1024A000FF31394801F08CFD2200AB4256D10625A0
:1024B0006557002D38DB6B005B199A002F4B9B187A
:1024C0009A68A260DA79E27106229A56A2719B7923
:1024D0005BB2002B0FDA2D48A0806B005B199B00CC
:1024E000264AD3182A4A1178997115704946300046
:1024F000FFF718FEA5E7201D6B005B199B001F4A24
:102500009B181A1D9B88D90A1C2907D15B055B15EE
:10251000023359005118FFF7A5FDDDE71D4B1E4A98
:10252000B121194801F04CFD002912D1002A0ED02A
:10253000FF239371194B9380154A1378A371184B9D
:102540000E49641A644163431B0D1370CEE70A4FB2
:10255000F2E7201D1349FFF7A9FDC7E76A21124BD7
:10256000084AFF31084801F02BFD034F69E7C046D8
:10257000240100D000ED00E0CD010010C80B0020C8
:10258000B4AE00107CAF00105CAD001001BD0000C7
:10259000002500209CAE00109CAF001001BDFFFF85
:1025A000AAAA0000020C0020E8AE001070B50121BC
:1025B00001432E4BCB1A2F2B28D8EFF30583002B8A
:1025C0002BD0EFF3108C72B6294A1268002AFBD088
:1025D000BFF35F8F274A0400244D641B64416243AC
:1025E000120D54B2244A92689B00D2588A421BD0E2
:1025F0000022032A32D853009B189B001B49CB189A
:102600009B795BB2A3421FD00132F2E7C7211B4B7B
:102610001B4A49001B4801F0D3FC92211A4B184A6F
:10262000FF31184801F0CCFC134A92681749D15089
:10263000174B1A7882711C70BFF35F8F0C4B00220E
:102640001A608CF3108870BD0D0053009918890032
:102650006918FF268E710F4A8A80E9E7D1210E4B57
:10266000074A4900074801F0ABFCC046C80B0020F0
:10267000240100D0AAAA000000ED00E0F0AE001096
:1026800048AF00105CAD001018AF0010CD01001075
:102690000025002001BDFFFF24AF00100022044BE5
:1026A00002E0044902C30132072AFAD97047C04642
:1026B00000E400E08080808000B583B00100064B1C
:1026C0000093052300220548FFF761FC002801DB89
:1026D0001F23181A03B000BD2CAF001008250020DE
:1026E000024B9C4661448900016070474000003401
:1026F00010B50400FFF784FC01002000FFF7F0FF95
:10270000FF232371BFF35F8F10BD10B50400FFF7E7
:1027100077FC01002000FFF7E3FFFF232371002374
:102720006371BFF35F8F10BD034B9C46614489000A
:102730000160BFF35F8F70474000003410B50400A4
:102740000120FFF76BFC01002000FFF7EDFF10BD3B
:1027500010B50C00CB68834207D108000B6998477D
:10276000002809D02068616810BD5221054B064A37
:10277000FF31064801F024FC0023E3600020002123
:10278000F2E7C046F8B00010F8B200100CB100102B
:1027900070B505000C00080000F0C2FE09492000D9
:1027A00000F002FEFFF72CFC074B9C4660448000C3
:1027B00068602C75D0231B061B786B75A400034B37
:1027C000E55070BDD52A001040000034482200209A
:1027D0000A4B1A68EFF3108172B61368002BFCD015
:1027E000BFF35F8F054B1B68BFF35F8F00221A603A
:1027F00081F3108840BF0020002170478C24002006
:1028000010B5002922D003681B7B99421ED8174BB4
:102810009C466144090183689C4661440C68496890
:10282000002A19D003681B7B9A4215D883680F4889
:102830008446624412019A1810685368020001200D
:102840008B4201D80ED00020C0B210BD084B094AFF
:102850003C21094801F0B4FB054B064A3C210648DF
:1028600001F0AEFBA242EFD8EDE7C046FFFFFF0F3D
:102870003CB1001060B300100CB1001010B500297D
:102880001ED0037B99421BD84B005B18033B0468A6
:10289000A4466344002919D0002A1DD0914221D0BA
:1028A000002A25D0047BA24222D804685000801858
:1028B000033820188170197800291FD11A7010BDB3
:1028C000104B114A6821114801F07AFB104B114A54
:1028D0006F310E4801F074FB0F4B0E4A70210B480C
:1028E00001F06EFB0D4B0B4A7121084801F068FBAB
:1028F000044B054A6821054801F062FB41701A70DB
:10290000DDE7C04660B10010CCB300107CB1001010
:10291000BCB10010A8B30010C8B10010D4B10010B1
:1029200070B506000D001400002914D0002A14D040
:10293000806873689847002806D02200290030007C
:10294000FFF79CFF280007E02A0021003000FFF776
:1029500095FF200000E0100070BD0800FCE70000BB
:10296000F0B583B00500009201930AAB1C780BAB65
:102970001F78002C26D003685A7B944207D101238C
:10298000002B19D1002C3BD1200003B0F0BD002C4E
:102990000CD01A7B944209D81A6863001B19033BB8
:1029A000D3189B78002BEBD00123E9E73E4B3F4A3D
:1029B00068213F4801F004FB3E4B3F4A67213F48F6
:1029C00001F0FEFA03689C7B002CDBD012D01A7B4E
:1029D00094420FD862001219033A19688C46624477
:1029E00051789973002900D1D973002393705370E3
:1029F0001370C7E72C4B2D4A68212D4801F0E0FAEF
:102A0000002C3AD02B681B7B9C4236D82C4BE31809
:102A10001B01AA6894466344009A1A60019A5A609E
:102A2000089A9A60099ADA602E68002C2BD030D070
:102A3000337B9C422DD863001B19033B32689446BC
:102A4000634400229A705A701A70717B2200300021
:102A5000FFF766FF7073844200D095E7287D009AE7
:102A6000019B00F0E9FC061E01D0002F17D00C9B43
:102A7000002B00D188E71E7086E7124B124A3C21DA
:102A80000E4801F09DFA114B114AA521084801F0AA
:102A900097FA054B054A6821054801F091FA286824
:102AA000210000F001FFE2E760B10010CCB300109C
:102AB0007CB10010ECB10010D8B300100CB10010C4
:102AC000FFFFFF0F3CB1001060B3001008B1001011
:102AD000BCB30010F0B5DE4657464E464546E0B55D
:102AE0008BB00990002308938200B54BD65837006D
:102AF00052E0B44BB44A3F21B44801F061FAB44B00
:102B0000B44A3C21B44801F05BFA002901D1002805
:102B100069D10021404600F0BDFEA04219D12A68CB
:102B20006B6806920793AB689846EB689A464346F3
:102B3000002B14D0002C18D03B681B7B9C4214D86F
:102B4000631EFA68D35C08931B02184338610020A7
:102B500015E0A24BA24A8E219F4801F031FAA14B09
:102B60009F4A92219C4801F02BFA994B9E4A4121A1
:102B7000994801F025FA00239A46984600207B6880
:102B8000BFF35F8F00221A6086F310884346002B44
:102B900032D1002800D10CE100F098FB02000B1E9E
:102BA000A7DB00200021069007917868EFF31086DC
:102BB00072B601680029FCD0BFF35F8F3968884680
:102BC0004C7B002CD7D09AD0097B8C4297D8874970
:102BD00065182D01B9688C46654428686968801AB3
:102BE0009941002991DD2A686B68099800F024FC5E
:102BF00000239A469846C2E7089B1B022343994646
:102C000051461800C04705000E007A68EFF3108B9C
:102C100072B6136859424B41D9B2002BF9D1BFF3B8
:102C20005F8F002E1EDB002E46DD3B69002B47D058
:102C30004B456DD100F04AFB02000B1E6EDB5219B2
:102C40007341002B70DB002B72DB002104910131FA
:102C50000391029451460191414600913800FFF7DB
:102C60007FFE4CE03B69002BDDD04B4514D1069A2A
:102C7000079B521BB341002B14DB002B16DB0021FA
:102C80000491013103910294514601914146009112
:102C90003800FFF765FE32E0554B514AA1214E48FE
:102CA00001F08EF901225242524BE6E7454B464A6B
:102CB0003F21464801F084F9002E01D1002DB4D106
:102CC0003B68002C50D05A7B944237D10121002917
:102CD0004AD1DA7B002A4DD19A7B002A03D1DA7BD4
:102CE000002A5AD19C73DC73002C5CD03B681B7BA0
:102CF0009C4258D8FA68013C135D013313550023F8
:102D00003B617A68BFF35F8F13608BF3108843E7F2
:102D1000374B334AA421304801F052F9294B2A4A53
:102D20003F212A4801F04CF901225242314B8AE7F7
:102D3000244B254A3F21254801F042F9002C0DD0B3
:102D40001A7B94420AD862001219033A1868844622
:102D500062449278002ABAD00121B8E7264B274A6C
:102D60006821274801F02CF9264B274AF6212448F0
:102D700001F026F9002A0AD0197B8A4207D85100AF
:102D80008A18033A19688C4662445470A4E71A4BB7
:102D90001A4A68211A4801F013F91C4B1A4AFB2100
:102DA000174801F00DF90A4B0F4A41210A4801F07A
:102DB00007F90BB0F0BCBB46B246A946A046F0BD31
:102DC000482200202CB000102CB3001048B0001096
:102DD0003CB1001060B300100CB1001014B2001030
:102DE00044B300102CB2001084B30010FFFFFF0F9B
:102DF00038B20010FFFFFF7F60B10010CCB30010AD
:102E00007CB1001074B2001098B3001098B200109A
:102E100010B50C4B5B68002B04D00A210A48FFF761
:102E20005FFC10BD074C2300084A1021206800F009
:102E300041FC032000F03EFA03212000FFF7A8FC2C
:102E4000EBE7C046100C00208C2400200128001065
:102E500010B5064B5B68002B01D0044810BD044B35
:102E6000044A5E21044801F0ABF8C046100C002073
:102E7000ACB200106CB300100CB10010F0B5DE461F
:102E800057464E464546E0B58BB0804616001F00BB
:102E9000149B9A46159B994616AB1B789B461F239D
:102EA00002AA9446634400221A702BE0002809D03D
:102EB00042461268127B904204D8421E4146C968BD
:102EC0008A5C41E0404B414A4121414801F078F899
:102ED00007984CE0361BAF41002F07DB002F11DABB
:102EE0003C4B3D4A3F213D4801F06AF801267642BD
:102EF0003B4FF3E7374B384A3F21384801F060F841
:102F0000002F4FDB43465A68EFF3108472B6136804
:102F100059424B41D9B20791002BF8D1BFF35F8FD3
:102F20001F3302AA9446634404930023039302933D
:102F30004B4601935346009332003B004046FFF757
:102F40000FFD031EB2D1020041464968BFF35F8FF7
:102F500000250D6084F31088002B29D01F2302A9BF
:102F60008C4663441B78002BB2D112021043002B15
:102F700020D05B46002B1DD04946D04704000D00F1
:102F800003000B431DD00029A4DB00F09FF90600CD
:102F90000F1EAFDB36196F41002FB1DA01267642E2
:102FA0000F4FADE70B4B0C4A3F210C4801F008F8DE
:102FB000012040420BB0F0BCBB46B246A946A04639
:102FC000F0BD0798F6E7C0463CB1001084B300108E
:102FD0000CB100102CB000102CB3001048B0001041
:102FE000FFFFFF7FF8B50400002900D162E04268CE
:102FF000EFF3108572B6136858424341D8B2002BE4
:10300000F9D1BFF35F8FCBB22268567BB3421BD19D
:103010000120002848D0206988422BD0090AC9B273
:10302000002B2ED02068007B83422AD8581EE668E9
:10303000305C88422BD000206368BFF35F8F002292
:103040001A6085F31088F8BD002B0DD0167BB342B3
:103050000AD85E00F618033E1768BC466644B67888
:10306000002ED6D00120D4E7134B144A682114480F
:1030700000F0A6FF2C21134B134AFF31134800F038
:103080009FFF134B134A4121104800F099FF19008C
:10309000100000F009FC0028CED199210E4B0A4AFD
:1030A00049000A4800F08CFF23698B42C4D10023F9
:1030B0002361C1E70020C6E760B10010CCB3001067
:1030C0007CB10010D0B2001014B300100CB100108D
:1030D0003CB1001084B30010F4B20010407D704782
:1030E000F0B585B00700100019000C9E13000B43CB
:1030F00001D101200021B7600A9B3361306071600B
:103100000B9B7361CA1713005040040051400D001F
:10311000A41A9D4100F0DAF802000B1E12DB12190E
:103120006B41002B14DB002B16DB01210291019671
:103130000C4900913800FFF7A1FEF060C043C00FBA
:1031400005B0F0BD084B094A3F21094800F038FF9F
:1031500001225242074BE6E7034B044A3F21044851
:1031600000F02EFF512700102CB000102CB30010DF
:1031700048B00010FFFFFF7F70B584B005000C0061
:10318000EFF30583002B1ED1FFF762FE00230293AD
:103190000193224B00932A002300FFF76FFE061EC7
:1031A00023DD20BFFFF754FE3100FFF71BFF1C4B50
:1031B0005B6A9C422DD81A4A926AAA422CD29C423F
:1031C00025D0012026E0164B5B6A994209D8144AA3
:1031D000926A824207D2994201D001201AE000206F
:1031E00018E0002016E0012014E00D4B5B6A9C42C1
:1031F00009D80B4A926AAA4207D29C4201D0012008
:1032000008E0002006E0002004E0012002E00020A9
:1032100000E0002004B070BD0120FBE7D1270010C2
:103220000040054070B5EFF305801038EFF3108CC7
:1032300072B61A4B1B68002BFBD0BFF35F8F0122C5
:103240001300834016494B6316490B6016490978F1
:103250000C00C440224214D0114A546A8200134D1B
:103260005259944206D38200114C125999430E4B85
:10327000197007E00A4A031D9B00995899500022D3
:1032800000E00022BFF35F8F044B002119608CF334
:103290001088002A00D0904770BDC046280100D099
:1032A000004005403C700540072500209824002080
:1032B000941B002010B50100024A0348FEF74EFEA1
:1032C00010BDC046F0B30010FE240020044B5B6A22
:1032D000034A906A1900536A9942F9D17047C0466F
:1032E00000400540084B5B6A01E0074B5B6A8B427C
:1032F000FBD301E0044B5B6A8B4203D1024B9B6A18
:103300008342F7D37047C0460040054070B50400C3
:103310000D00FFF7DBFF02000B00200029008018E2
:1033200059418B4202D804D1824202D90120404245
:10333000C117002902DBFFF7D5FF70BD024B034A1E
:103340003F21034800F03CFE2CB000108CB400106C
:1033500048B0001010B5002807DB064B9A6A054BF1
:103360009B6A9B1A8342FAD310BD0021FFF7CEFF60
:10337000FAE7C0460040054010B50A4B984207D80E
:1033800043011B1A9B001818C000FFF7E3FF10BD94
:10339000FA2292000023002103F0E8FCFFF7B6FFB9
:1033A000F5E7C0469BC4200070B504000D00EFF3A4
:1033B000108672B61B4B1B68002BFBD0BFF35F8FD0
:1033C000002D1CD02000FEF7BDFE174B83420BD012
:1033D00019002000FEF7D0FE01212000FEF7A2FE1A
:1033E0000123A340114A1360A400114BE550BFF321
:1033F0005F8F0C4B00221A6086F3108870BDA2000C
:103400000B4B0021D1500122A2400A490B78934373
:103410000B7005492000FEF7F3FF00212000FEF7A6
:1034200081FEE4E7280100D0253200103860054015
:10343000941B002007250020F0B5DE4600B584B0BF
:103440000400150001921E000293FFF73FFF039551
:103450008E4202D84ED185424CD9EFF3108B72B612
:10346000274B1B68002BFBD0BFF35F8F254A1778D3
:103470000125A540EBB23B431370234B5D63221D36
:1034800092000199D150A2002049029850501B6A25
:103490002B4212D11C4B1B6C2B4208D00020BFF3D7
:1034A0005F8F174B00221A608BF3108823E0184BB4
:1034B000184AC521184800F083FDFFF707FF8E4228
:1034C00014D802D1039B834210D80E4B1B78BB4209
:1034D0000ED00D4B1D625D631F2004400123A340ED
:1034E0000E4A1360074B1F701E38D8E70020D6E73E
:1034F0000120D4E7012004B080BCBB46F0BDC0462B
:10350000280100D007250020004005409824002015
:1035100014B4001070B4001038B4001080E200E061
:10352000EFF3108C72B60B4B1B68002BFBD0BFF374
:103530005F8F01238340084A136208490A789A433F
:103540000A70BFF35F8F034B00221A608CF3108860
:103550007047C046280100D00040054007250020E4
:1035600010B500291ED0037B99421BD84B005B1875
:10357000033B0468A4466344002919D0002A1DD0E7
:10358000914221D0002A25D0047BA24222D804688F
:1035900050008018033820188170197800291FD135
:1035A0001A7010BD104B114A6821114800F008FD37
:1035B000104B114A6F310E4800F002FD0F4B0E4ABE
:1035C00070210B4800F0FCFC0D4B0B4A71210848A0
:1035D00000F0F6FC044B054A6821054800F0F0FCB9
:1035E00041701A70DDE7C04660B1001088B5001068
:1035F0007CB10010BCB1001074B50010C8B100104F
:10360000D4B1001070B506000D001400002914D0CC
:10361000002A14D0806873689847002806D02200DA
:1036200029003000FFF79CFF280007E02A00210056
:103630003000FFF795FF200000E0100070BD08008B
:10364000FCE7000010B50023437301338373037B51
:10365000C3730123027B9A4214D9002B0CD0027B46
:10366000934209D85A00D218033A01688C46624442
:103670000133DBB25370EDE70B4B0C4A68210C4869
:1036800000F09EFC002A09D0924207D8016853003E
:103690009A18033A8A180023537010BD024B034A4C
:1036A0006821034800F08CFC60B1001088B5001060
:1036B0007CB1001010B5017342608360FFF7C2FF58
:1036C00010BD000070B50400081E00D170BD0029B7
:1036D00034D0237B994231D84B005B18033B2268DE
:1036E000944663445A78002AF0D02DD0237B9A4226
:1036F0002AD853009B18033B21688C4663445D78AD
:1037000000215970002825D0237B984222D84300FD
:103710001B18033B21688C4663440021597001004B
:103720002000FFF76FFF060029002000FFF7CAFF07
:10373000020031002000FFF765FFC7E7084B094A88
:103740006821094800F03CFC054B064A6821064800
:1037500000F036FC024B034A6821034800F030FCBD
:1037600060B1001088B500107CB1001070B5050084
:103770000C00160000292FD034D0037B994231D899
:103780004B005B18033B0268944663445A78002A56
:103790002ED19A78002A31D11978FFF793FF0300D0
:1037A000002E0AD0EA7B002A2ED1AA7B002A03D160
:1037B000EA7B002A3BD1AC73EC73002B3DD1002C8B
:1037C0004FD02B7B9C424CD82B6861000C19033CDA
:1037D0001C190023637070BD254B264A38212648EA
:1037E00000F0EEFB254B264A6821264800F0E8FB56
:1037F000254B204A3A21204800F0E2FB234B1D4A8A
:103800003B211D4800F0DCFB002A0AD0297B8A42BC
:1038100007D851008A18033A29688C4662445470CC
:10382000C3E7164B164A6821164800F0C9FB184B2F
:10383000104A4221104800F0C3FB002B0BD02A7B1A
:10384000934208D843001B18033B2A6894466344FC
:1038500000229A70B3E7094B094A6821094800F031
:10386000AFFB064B064A6821064800F0A9FBC0469C
:10387000A4B4001060B50010ACB4001060B100102A
:1038800088B500107CB10010DCB4001004B5001045
:1038900098B2001070B504000A00457B2900FFF7BC
:1038A00065FF6073280070BD70B50400002967D003
:1038B000437B8B420ED0002911D0037B99420ED856
:1038C0004B005B18033B0268D0188378002B0CD1A7
:1038D000002056E00121FFF7DDFF012051E0294BD8
:1038E000294A6821294800F06BFB002B20D0227B5D
:1038F00093421DD85A00D318033B2268D21825687A
:10390000EB5C8B421AD0002B1BD0227B934218D841
:103910005A00D318033B2268D21853788B4216D032
:10392000002BF0D11A4B1B4A6B211B4800F048FBBF
:10393000144B154A6821154800F042FB4378137078
:1039400007E0104B104A6821104800F039FB43781B
:10395000537000238370437001222000FFF706FF9D
:103960000200617B814205D02000FFF74BFE6073AF
:10397000012006E0094B074A7121074800F020FBAF
:10398000002070BD60B1001088B500107CB100103F
:1039900024AF001048B50010ACB4001028B50010DA
:1039A00070B5046BE30701D4200070BD0200303213
:1039B000C0239B0113430A4A1A60456A826AAD011B
:1039C000AD18AD02062000F0BDF9064901F0A6FCD5
:1039D0000100280001F0A2FC0021FFF797FCE3E7BB
:1039E000010300004E0E000070B504000E0015002B
:1039F000FFF7D6FF22002C32E16A4E40354080238B
:103A00005B0113431D60206370BD000070B50500AD
:103A10000C00062000F096F9C000210001F07EFCA9
:103A2000C60908D00E4B9E4216D87F23184001309D
:103A30003400460800E001246C62AE6200220021DE
:103A40002800FFF7D1FF062000F07CF98000A101DB
:103A5000891901F063FC70BD0026024CECE7C046FA
:103A6000FEFF0000FFFF000010B505394901013AD3
:103A7000D2001143002B09D002220A43012B07D0A8
:103A8000002111436E22FFF7AFFF10BD0022F4E7C3
:103A90000421F6E7002909D00A22064B9C4660441F
:103AA000434258414000044BC252704780225200AA
:103AB000F3E7C0460080FCBFB024002070B50500CD
:103AC0000C00062000F03EF9061E27D0164B9D4242
:103AD00026D08022D203154B1A60154B1A60154B65
:103AE0009B6811009943FAD100212800FFF7D2FF0B
:103AF00021002800FFF78AFF060000230122082189
:103B00002800FFF7B1FF2A002C3280239B011343CA
:103B100010221A60084B2B630323AB64300070BD86
:103B200080221204D7E7C0460080034000E0004036
:103B300000F0004000C0004001030000F8B5DE4680
:103B400057464E464546E0B505000F0092460A9A94
:103B5000934250D31A0E91461E020A9A0023300057
:103B6000494601F019FC80466C006419A400304BF2
:103B70009C4664446368834200D260602B1FDBB2C2
:103B80009B46012B3DD9C0239B0123438022120178
:103B90001A60AB00274A9958002907D0506901F0F4
:103BA000BDFB431C5800C0180338FDD253465A01D0
:103BB00023685A40E0231A4080235B0123431A60A4
:103BC0005A46012A28D980239B01234380221201CF
:103BD0001A6043466360424600233000494601F0C4
:103BE000DBFBAD00134B58510120F0BCBB46B24685
:103BF000A946A046F8BD104B104A3321104800F0EA
:103C0000DFF9012FBFD1C0239B01234303221A6098
:103C1000A368DB07FCD5C9E72168794003220A4085
:103C20001A60A2680123BB401342FAD0CBE7C0461A
:103C300000800040C01C002094B50010E4B50010C6
:103C4000A8B5001030B583B00C2000F011F9FEF7D4
:103C500065F900280DD0002304E099002D4A2E4874
:103C600088500133092BF8D92A4B2C4A5A6203B0E9
:103C700030BD2B4B00229A6700F06CF9294B0122D2
:103C80001A60274B5B6C012BFBD1274B03221A6078
:103C9000234B9B6B012BFBD1013300930433234A4D
:103CA0000121234800F054F805230093214A012103
:103CB000214800F04DF8214B0093002202210420FE
:103CC000FFF73CFF1E4D00952B000022012105202F
:103CD000FFF734FF104C009423000022002107203E
:103CE000FFF72CFF00942300002200210820FFF79B
:103CF00025FF0A4B00932300002200210920FFF733
:103D00001DFF00952B00002200210620FFF716FF63
:103D1000ADE7C046C01C0020006CDC021BB70000F1
:103D2000008000403CB0004030B00040002F685997
:103D300000800240008C864700C00240001BB70094
:103D4000405973078000014BC0587047C01C0020C9
:103D5000F0B5C64600B504000E0017001D00374838
:103D600001F0DCFA8046364BFA18364B9A4239D8C5
:103D70000100380001F0D2FA0200103A98235B00EB
:103D80009A4235D86B1E062B38D8069B013B062B72
:103D900034D83F09474537D32D04069B1A031543F2
:103DA0002368002B36DB284B9C4244D080225201F2
:103DB000264B1A60264B1A60264B9B6811009943CC
:103DC000FAD12660A060231DC02292011A4321234C
:103DD00013602368002BFCDAE5600823136080BCC5
:103DE000B846F0BD1C4B1D4A11211D4800F0E8F8F3
:103DF0001C4B1A4A19211A4800F0E2F81A4B174ACC
:103E00001C21174800F0DCF8184B144A23211448F1
:103E100000F0D6F822683F231340B342C3D1A36811
:103E20001B051B0D8342BED1E368EE22D202134074
:103E3000AB42B8D1D3E780229201B9E7001BB700AB
:103E400080E84BD380F8A93200C0024000E0004077
:103E500000F0004000C00040F4B500100CB70010A6
:103E600054B6001088B60010A4B60010F0B60010CA
:103E700080239B000343014AD362704700800540C2
:103E8000024B1A68024B5A607047C04690210020CE
:103E90000080054010B50200164B8020C005186058
:103EA000154B1648186000290AD0154BE021C904AB
:103EB0001960002A09D1124B802212061A6010BD27
:103EC0000C4BE021C9041960F3E753019B1A9800D9
:103ED000801800010B4B186080235B04984202D3CA
:103EE000084B094A1A60FFF7CBFF054B8022D20529
:103EF0001A60E4E700B0054008200140FCFF010023
:103F000000A0054090210020FFFFFF0010B5030036
:103F100010000C4A8024E4051460002B0DD001220F
:103F20001343094A094CD461094C5C401462516244
:103F300093620021FFF7AEFF10BD034B0022DA6150
:103F4000F7E7C04600B0054000800540D3C007B089
:103F50002D3FF84F064BAA2212011A602F22DA6079
:103F6000044B054A1A60024B5B68002BFBDA704772
:103F7000004002400060024000B0FA0000BEFDE7D1
:103F800003000A4A1268002A08D0084A1068C318B9
:103F9000074A9A4206D3054A13607047034A054907
:103FA0001160F2E701204042F7E7C0468C1D002077
:103FB000000004200C25002010B5FFF7DFFF0000F3
:103FC00010B582B00C001900002A0CD0084B002A52
:103FD0000BD00192009323000200064803F00CFB73
:103FE0000120FFF7CBFF044BF1E7034AF1E7C0469E
:103FF00018B7001028B70010C4AC001070B52B4BD8
:104000002B4A1A602B4B2C4A1A602C4B9A682A4B6D
:104010009343FAD12A4C01E008CC9847294B9C42A3
:10402000FAD3FFF70FFE234B274A1A60234B9B68F6
:10403000DB43DB01FAD1254B40229A675A671A67A6
:10404000DA66234C09E0234B234A87212348FFF7F4
:10405000B7FF2000FEF74CFB0834214B9C4209D2ED
:104060002368002BF5D0012BEDD12000FEF74DFB8E
:104070000834F2E71B4CA1681B4DC022280003F056
:1040800063F9A560EFF30583002B00D000BEFDF7B8
:10409000A7FFFEF703FBFEF7BBFE144C01E008CCC4
:1040A0009847134B9C42FAD370BDC04600E00040D5
:1040B000BFCDFBFE00F00040FE7F3C0000C0004092
:1040C0000815002018150020FFFFFF0100F0014037
:1040D0000015002058B70010C4B7001078B70010C2
:1040E0000815002000ED00E0000000201815002059
:1040F000281500200FB400B583B0084803F04CFA2F
:10410000049B002B07D005A90191180003F054FA75
:10411000034803F041FA0120FFF730FFB0B7001069
:10412000C0B70010704710B5002802D00B6849686E
:10413000984710BD0100002007E083001B185B00BA
:10414000501C08601078C01830380A681378303B6B
:10415000DBB2092BF1D97047F0B5DE4657464E4623
:104160004546E0B583B093461F000C9B9A460D9CD4
:104170000E9B99460F9B9B0703D0B8460F00060085
:1041800022E00192A34688464E46B9460700B44253
:1041900007D2551C4B4641462020B84701342A001F
:1041A000F5E73D004F465C46019B9B46B1464646BF
:1041B000B84637002E0007E0013C551C5346185DF9
:1041C00043463900B0472A00002CF5D135003E00A7
:1041D00047460F9B9B0707D4100003B0F0BCBB46BB
:1041E000B246A946A046F0BDB0464E46B9462F009D
:1041F0005D46531BB342EFD2541C4B464146202030
:10420000B8472200F5E7F0B5CE46474680B585B001
:10421000944698460C9D0D9C0EAB1B789946109ABF
:10422000119B129EB7071CD4002B0CD0F7070AD5A0
:104230004F46002F02D10C37374204D0013B02E039
:1042400030272F550134944201D21F2CF8D9F7079B
:1042500007D59C4205D21F2C03D830272F55013497
:10426000F5E7F70615D5770505D4002C03D0944261
:1042700024D09C4222D00F9A102A2BD00F9A102AB9
:1042800030D00F9A022A35D01F2C02D830222A555E
:1042900001341F2C05D84A46002A31D02D222A5538
:1042A0000134039602930194009543466246FFF75A
:1042B00053FF05B0C0BCB946B046F0BD621E012C2C
:1042C00006D00F9F102F01D01400D4E7023CD2E794
:1042D0001400D0E7B206D1D41F2CCFD878222A55AB
:1042E0000134D1E7B206CCD51F2CCAD858222A55A2
:1042F0000134C9E71F2CC7D860322A550134C3E7FF
:10430000720703D52B222A550134CAE73207C8D5D4
:1043100020222A550134C4E7F0B5DE4657464E4602
:104320004546E0B593B081468A46089209931CAB96
:1043300010CB1B789B461E9D219B9846002C03D1D9
:10434000102342469A4390468023DB0046461E4097
:1043500042461A4212D0002C22D000260EE0303302
:10436000D9B2771C0AAB99552900200000F0D6FF7E
:10437000AC4216D31F2F14D83E00040029002000A1
:1043800000F0CCFFCBB2092BE9D94246920605D505
:104390004121C918C9B20A39C9B2E2E76121F8E777
:1043A000270043460693209B05931F9B0493039588
:1043B0005B46029301970AAB0093099B089A51460A
:1043C0004846FFF720FF13B0F0BCBB46B246A946F3
:1043D000A046F0BDF0B5DE4657464E464546E0B530
:1043E00095B0089009910A920B931E9E1F9C20ABDA
:1043F0001B789B46229B9946239D269B9A46330019
:10440000234303D1103352469A4392468023DB0064
:1044100057461F4052461A4219D0330023432DD02D
:10442000002714E03033DAB27B1C98460CABDA5527
:104430004A462B003000210000F0AEFFA5421FD8F5
:1044400019D043461F2B1BD8474606000C004A468E
:104450002B003000210000F09FFFD3B2092BE1D9DF
:104460005246920605D54122D218D2B20A3AD2B2A9
:10447000DAE76122F8E7B145E3D901E00023984685
:1044800053460693259B0593249B04934B46039325
:104490005B460293434601930CAB00930B9B0A9A35
:1044A00009990898FFF7AFFE15B0F0BCBB46B246BD
:1044B000A946A046F0BD0000F0B5DE4657464E4680
:1044C0004546E0B591B083468A460C9298461A9CC0
:1044D00008941B9D099522002B002000290001F063
:1044E000EEF9002800D0E5E001225242D74B20002F
:1044F000290001F0DFF9002800D0DBE00122524260
:10450000D34B2000290001F0BFF9002800D0D1E0F2
:1045100000220023089E3000099D290001F0B4F913
:10452000002800D0DDE008980999069007918023C3
:10453000DB001E9A1A400D921E9A1A4201D10623E0
:104540001C930698079904000D000A000600024318
:1045500000D1D1E0080D4005400DBE4CA44660449A
:104560000A03120BBC4B13431F0001F0BBF9BB4AFB
:10457000BB4B01F03EF9BB4ABB4B01F013F9040001
:104580000D000022B94B3000390001F002F9B84AA1
:10459000B84B01F02EF902000B002000290001F0B9
:1045A00001F901F0B7F9814601F09CF904000D0012
:1045B000B14AB24B01F01DF90022B14B01F0F2F803
:1045C00001F0A8F90600AF4AAF4B2000290001F026
:1045D00010F904000D00300001F084F9AB4AAC4B37
:1045E00001F007F902000B002000290001F0D1F8CA
:1045F00004000D0002000B0001F0FBF80A900B9183
:10460000A44BF31800261F0522002B0020002900D0
:1046100001F0C8F80E900F9122002B00002080219D
:10462000C90501F0B6F804000D0000229A4B0A9863
:104630000B9901F0C0F80022984B01F0B3F802008A
:104640000B000A980B9901F0B6F80022944B01F088
:10465000A9F802000B000A980B9901F0ACF80200CF
:104660000B002000290001F09DF802000B000E98BD
:104670000F9901F0A0F80022774B01F093F8320077
:104680003B0001F0B6F806000F0004000D00069A8A
:10469000079B01F00FF9002830D001235B429C46B4
:1046A000E14400227D4B3000390001F084F8040021
:1046B0000D0023E01E9B04931D9B03931C9B029300
:1046C000089A099B0092019343460C9A514658461A
:1046D00000F0FCF811B0F0BCBB46B246A946A046BB
:1046E000F0BD0023002406930794069680231B0642
:1046F0009C46654407951AE7002399464B46633369
:10470000C62B1ED804261E9B1B0526D52B00234333
:104710000FD0644A644B0698079901F0C3F800284B
:1047200079D00022614B0698079901F0ADF8002876
:1047300071D01C9B4B4506DD4A46981A431E1C93BC
:1047400003E00526DFE700231C938023DB001E9A8D
:104750001A431E920026002399461D9B9E4264D256
:104760009F1B02231E9A1A400A921E9A134202D0DD
:10477000002E00D000274B46002B07D022002B0034
:104780000698079901F017F8069007910022002378
:104790000898099901F078F8002848D1444B1E9AEE
:1047A0001340049303971C9B0293069B079C009362
:1047B000019443460C9A5146584600F087F8002E63
:1047C00000D187E71E9B9B063DD54525441C4346EB
:1047D000020051462800D8474B46DA179B18534031
:1047E00005220592013E0496002203920A320292AB
:1047F0004A46D00F01900093434622005146584646
:10480000FFF78AFD0A9B002B00D163E702005F4699
:104810000C9E1D9D54E01C9B002B9ED00D9B002BDD
:104820009BD01C9B013B1C9397E7002799E7069CB4
:10483000079D2200290080200006844661440B0069
:1048400006920793AAE76525C0E7C046FFFFEF7F02
:10485000FFFFEFFF01FCFFFF0000F03FFB799F50DF
:104860001344D33FB3C8608B288AC63F0000F83F8B
:1048700061436F63A787D23F71A379094F930A40C1
:104880000000E03F1655B5BBB16B0240EF39FAFEB0
:10489000422EE63FFF03000000002C4000002440B1
:1048A000000018402D431CEBE2361A3F80842E4155
:1048B000FFF7FFFF541C434651462020B847220013
:1048C000931BAB42F6D3100004E7C046F0B5DE46BA
:1048D00057464E464546E0B595B00690079193463B
:1048E0009946209F1E9A1F9B1000190000F0E7FFB9
:1048F000002831D101225242BF4B1E981F9900F06F
:10490000C3FF002837D101225242BC4B1E981F9989
:1049100000F0D0FF00283DD10022B94B1E981F990E
:1049200000F0C8FF002850D10022B64B1E981F99F6
:1049300000F0AAFF002848D1002200231E981F99EA
:1049400000F0A2FF002850D100239846229B5B056F
:1049500000D4B6E0002458E0229B0393219B0293ED
:1049600003230193A84B00934B465A460799069898
:10497000FFF7F2FB0EE1229B0393219B029304239A
:104980000193A24B00934B465A4607990698FFF7AE
:10499000E3FBFFE00423229A1A4022990B4210D035
:1049A0009B4B002A0FD00422229903912199029156
:1049B000019200934B465A4607990698FFF7CCFBA5
:1049C000E8E0944BEDE70322EEE7229B0493219B62
:1049D000039302971E9B1F9C009301944B465A46DB
:1049E00007990698FFF768FDD4E01E9A1F9B0020E8
:1049F000002100F0CEFE1E901F9101239846A5E7EE
:104A00000CAB30221A55013F01341F2C01D8092F5D
:104A1000F6D81E981F9900F07DFF050000F062FF98
:104A200002000B001E981F9900F0B3FEFA007A4BAB
:104A30009B181A685B680A920B9300F0DAFE0890E4
:104A4000099100F08BFF060000F048FF02000B0008
:104A50000898099900F09DFE0890099100226F4B7B
:104A600000F028FF00282ED00136300000F036FF7D
:104A700002000B000A980B9900F00CFF002801D0EF
:104A800001350026002F2CD1280000F02BFF02005A
:104A90000B001E981F9900F07CFE06000F000022FC
:104AA0005E4B00F0F1FE002846D100225B4B300047
:104AB000390000F0FFFE00283ED1EB073CD5013560
:104AC0003AE0062746E70022544B0898099900F07F
:104AD000DBFE0028D6D1002E01D0F307D2D5013657
:104AE000D0E7AA461F2C11D8013F0A21300000F060
:104AF00015FC651C30310CAB19550A21300000F053
:104B00000DFC092E0ED906002C00EBE755461F2C94
:104B10000CD87B1E002F09D00CAA302111551F0084
:104B20000134F4E72B0055461C00F0E71F2C03D896
:104B30000CAB2E221A5501341F2C10D80A21280044
:104B400000F0C4FB661C30310CAB19550A2128005B
:104B500000F0BCFB051E01D03400EDE73400032358
:104B6000229A1340012B1CD01F2C06D84346002B41
:104B700032D00CAB2D221A550134229B0393219B7A
:104B8000029301940CAB00934B465A460799069842
:104B9000FFF7E2FA15B0F0BCBB46B246A946A04604
:104BA000F0BD219B002B13D04346002B02D10C33C8
:104BB00013420FD0219B013B2193190003E00CAB62
:104BC00030221A5501348C42CED21F2CF7D9CBE7B4
:104BD0002199F8E72199F6E7229B5B0704D50CABF6
:104BE0002B221A550134C8E7229B1B07C5D50CABF5
:104BF00020221A550134C0E7FFFFEFFFFFFFEF7FD0
:104C000065CDCD4165CDCDC1E0B70010E4B7001052
:104C1000D8B70010D4B70010D0B900100000E03FA2
:104C2000F0B5DE4657464E464546E0B593B082465F
:104C30008B4690461193002900D1EBE200275546A0
:104C4000119B1878002800D1E7E2252809D07C1CA8
:104C500043463A005946A847119B01331193270058
:104C6000EEE7013311930024119A11780B00203BD9
:104C7000D8B2102803D88300D048C3589F460B00F1
:104C8000303BDBB2092B2CD92A292FD000230A93E1
:104C9000119B1A782E2A39D000239A46119A13783C
:104CA000683BD9B2122976D88B00C549CB589F46AC
:104CB00001231C4301321192D6E702231C43013227
:104CC0001192D1E704231C4301321192CCE708234F
:104CD0001C4301321192C7E710231C430132119289
:104CE000C2E711A8FFF726FA0A90D1E71C9B1A1D0C
:104CF0001C921868002804DB0A90119B0133119361
:104D0000C6E702231C4343420A93F6E78022D200FF
:104D100014435A1C11925A781300303BDBB2092B12
:104D200004D92A2A07D000239A46B7E711A8FFF72B
:104D300001FA8246B2E71C9B1A1D1C9218680028D3
:104D400004DB8246119B01331193A7E70020F8E7AB
:104D500080235B002343511C119152786C2A01D0AF
:104D60001C0018E0C0239B001C430131119112E08C
:104D700080232343511C11915278682A01D01C00D2
:104D800009E0C0231C430131119104E080235B0042
:104D90001C4301321192119B18780300253BDAB2B3
:104DA000532A00D92CE29300864AD3589F46802389
:104DB0009B001C4301321192EDE780235B001C43F2
:104DC00001321192E7E7782809D0582838D06F28A7
:104DD00038D0622838D010239C430A2600E01026E1
:104DE000582833D0692803D0642801D00C2294437A
:104DF000630501D50122944369282AD0642828D06C
:104E0000A30500D59FE0E30500D5B8E0630600D414
:104E1000CAE01C9A111D1C911168FF220A400594DA
:104E20000A9B049353460393029600230193009236
:104E300043463A0059462800FFF76EFA070027E07C
:104E40001026CDE70826CBE70226C9E72022144327
:104E5000C8E7A30520D4E30550D4630666D51C9AA1
:104E6000111D1C911168FF220A40D317D118594017
:104E700005940A9B0493534603930296D20F019222
:104E8000009143463A0059462800FFF745FA0700CB
:104E9000119B01331193D3E61C9BDA1D07218A4332
:104EA000110008311C91116853689C46DB170C9364
:104EB0000D930C9A0D9B100048400E906246534093
:104EC0000F930E980F990C9A0D9B801A99410E9092
:104ED0000F9108940A9B0793534606930496002368
:104EE00005936346DA0F02920090019143463A001F
:104EF00059462800FFF76EFA0700C9E71C9A111DF2
:104F00001C911268D317D118594005940A9B049339
:104F1000534603930296D20F0192009143463A0002
:104F200059462800FFF7F8F90700B1E7230605D531
:104F30001C9A111D1C910023D25E96E71C9A111D2C
:104F40001C91126891E71C9BDA1D07218A4311000E
:104F500008311C9108940A9B0793534606930496C4
:104F60000023059302931368546800930194434609
:104F70003A0059462800FFF72DFA070088E71C9AE7
:104F8000111D1C9105940A9B0493534603930296AA
:104F9000002301931368009343463A0059462800C2
:104FA000FFF7BAF9070073E723060DD51C9A111D08
:104FB0001C9112681204120C31E7C046ECB70010C5
:104FC00030B800107CB800101C9A111D1C9112689A
:104FD00025E746281AD01C9B0733072293431A0063
:104FE00008321C9204940A9A0392524602925C6818
:104FF0001B680093019443463A0059462800FFF786
:1050000065FC0700119B0133119319E620231C4313
:10501000E1E7672801D0472802D180231B011C4308
:10502000452801D0472801D120231C431C9B07336E
:10503000072293431A0008321C9204940A9A03929E
:10504000524602925C681B680093019443463A0002
:1050500059462800FFF730FA0700119B01331193DE
:10506000EEE502231A002240924623421FD001247B
:105070001C9B1A1D1C927A1C9146187843463A00D4
:105080005946A8475346002B16D1119B0133119363
:105090004F46D5E5561C434659462020B8472300C5
:1050A00032005C1C9D42F5D83D001700E0E701236B
:1050B0003A002F000A9DF4E74A46A9460A9D06E0F9
:1050C000571C434659462020C84734003A00661C06
:1050D000A542F5D84D469146D7E71C9B1A1D1C9258
:1050E0001B6899465346002B00D1013B4E4601E018
:1050F000013613003278002A02D05A1E002BF7D155
:105100004B46F21A10928023DB0026001E401C4200
:1051100003D0524501D95346109302231A0022406E
:105120000B92234205D03A0037004C46A94655461B
:1051300020E03A00109B5F46B3462E0006E0551C67
:10514000434639002020B04723002A005C1C0A99FE
:105150009942F4D835005E46BB46109437004C4661
:10516000A946554606E01D000134561C43465946E3
:10517000C84732002078002804D0002FF4D06B1EDE
:10518000002DF0D117004D460B9B002B03D1119B36
:105190000133119354E50A9F109B06E0561C4346C9
:1051A00059462020A847230032005C1C9F42F5D8B6
:1051B0001700ECE721231C431C9B1A1D1C921B6843
:1051C00000930594082304935346039310230293FA
:1051D0000023019343463A0059462800FFF79CF804
:1051E0000700119B013311932AE57C1C43463A00CA
:1051F00059462520A847119B0133119327001FE52D
:105200007C1C43463A005946A847119B0133119331
:10521000270015E50A4B9A4610E5AA46474502D3F2
:1052200043465A1E00E03A00434659460020D04704
:10523000380013B0F0BCBB46B246A946A046F0BD4C
:105240002541001000B585B0029003910121009323
:1052500013004A4202A90248FFF7E2FC05B000BD74
:105260002741001001480421014B1847400C002041
:105270009552001010B5010018231B8814221088C5
:10528000984710BD10B5010018231B8816221088FE
:10529000984710BDF0B5C64600B507000E000025C2
:1052A0000123984600E00135B5420AD2AC003C1912
:1052B0002068FFF7DFFF20600028F4D10023984624
:1052C000F1E7404680BCB846F0BD0000124A936F3B
:1052D0009B0815D29066D166002905D0FFE7FFE74D
:1052E000FFE7516F106F704704B580210906C217A0
:1052F0005140002800D0C84305F086FC002104BDC1
:10530000F0B5146E556E576F166FFFF7E3FF146616
:10531000556657671667F0BD000000D0114A936FBD
:105320009B0813D210665166002905D0FFE7FFE7FE
:10533000FFE7516F106F704704B5002801D00020BF
:10534000C04305F061FC002104BDC046F0B5146EF9
:10535000556E576F166FFFF7E5FF14665566576772
:105360001667F0BD000000D094464A4A926F92083A
:10537000624601D228E0C046F0B5464E346E756EE6
:10538000776F366F00F020F89446424A14665566EF
:10539000576716676246F0BD94463E4A926F920880
:1053A000624601D254E0C046F0B53A4E346E756E96
:1053B000776F366F00F04CF89446364A146655669F
:1053C000576716676246F0BD002B24DB11D0002919
:1053D0003EDA00B5C943404200D1013100F038F84F
:1053E000C943404200D10131DB43524200D1013375
:1053F00000BD002AEBD1002801D1002905D00020F2
:10540000C90FC90701D1C043410800B505F0E4FB4D
:105410000022002300BD00B500290ADBDB43524215
:1054200000D1013300F014F8C943404200D10131EA
:1054300000BDC943404200D10131DB43524200D19B
:10544000013300F005F8DB43524200D1013300BDC7
:10545000002923D1002B18D1002A0CD0BC460D4FB7
:1054600038667A6600210023FFE7FFE7FFE77A6FDF
:10547000386F67467047002801D00748010000B523
:1054800005F0AAFB0022002300BD02000B00002053
:1054900000217047000000D0FFFFFFFF002B00D06D
:1054A000BFE0130C28D1002AE7D080B4114F396631
:1054B0007A66FFE7FFE730B4040C7B6F396F1B049B
:1054C00023433B667A66FFE7FFE7FFE7C04684B207
:1054D0007B6F3D6F1B0423433B667A66FFE7FFE764
:1054E000C04600232C042D0C7A6F386F00196941D7
:1054F000B0BC7047000000D0F0B594460025140EF3
:1055000001D112020835140F01D112010435940F94
:1055100001D192000235D40F01D152000135D40BD4
:105520000134254F7C66254C3C660E0C93B2FFE798
:10553000FFE7FFE73C6F6643360C7703BE467343D5
:10554000DF0B5B04C01AB941130C7343DB18C91A93
:10555000CE086643360CB64493B273431F0F1B014B
:10556000C01AB941130C73431F0B1B05C01AB94174
:10557000860D8F023E436643360C092D24DB520A0A
:105580007243801A7703460A6643360C16235B1B68
:10559000DE40DF40BF1964466643821B7046043517
:1055A00006330100D940A840C01900D30131A242FE
:1055B00006D20023F0BD0000000000D0FFFFFFFF77
:1055C000121B0130F3D3F1E709277F1BFE4064462D
:1055D000A2B27243801A00D20139220C7243130C1A
:1055E0001204821A99410B007046043513370100EA
:1055F000F940A840801900D30131002B02D1A2420A
:105600000AD2F0BD013000D30131121BFAD2013BA6
:10561000F8D1A24200D2F0BD013000D30131121BFB
:10562000F7E7F0B51C0C00D080E00CB400251C0A94
:1056300004D11B02160E3343120208351C0B04D191
:105640001B01160F3343120104359C0B04D19B0040
:10565000960F334392000235DC0B02D192185B4166
:1056600001351C00971864410134464F7C66464C56
:105670003C660E0CFFE7FFE7FFE7C0463C6F664362
:10568000360C7703BE4697B27743C01B00D2013970
:10569000C01B00D201399FB27743C91BC91B170C2D
:1056A00077437E04FF0B801BB941CE086643360C5E
:1056B0000C2D33DBB644120B1F053A431B0B97B27C
:1056C0007743C01B00D201399FB27743C91B170C27
:1056D00077433E043F0C801BB941860D8F023E4349
:1056E000664329277F1BFE400C3D7746AF40BF191C
:1056F00030BCA2B2ABB272437343801A9941220C00
:105700007243130C1204801A994102000B000137F6
:10571000001BA941F9D2781E0021F0BD0C277F1B88
:10572000FE4077467F0BAF40FF19E0E700245D1C89
:1057300007D0144F7D663966FFE7FFE7FFE7FFE715
:105740003C6F95B29EB265436643401BB141150C58
:105750001E0C6543664336042F0C3E432D04401B4C
:10576000B141994204D202000B0020000021F0BD9B
:1057700001D19042F7D3801A994101349942F2D372
:10578000F6E70000000000D0FFFFFFFF4840414067
:10579000484018B41B4B5B68FC46019308BD04DF0E
:1057A0006764001018B4174B1B68FC46019308BDD2
:1057B00000DF716400109446134A926F920809D278
:1057C000624618B40F4BDB68FC46019308BD0CDF42
:1057D000296700100C4AF0B5146E556E576F166F9E
:1057E0006246FFF7EEFF084A14665566576716676C
:1057F000F0BD18B4034B9B68FC46019308BD08DF5D
:10580000CD65001068220020000000D0FFB5504098
:105810004240504059404B40594000E0FFB5154FC1
:105820004C00640D03D0BC4204D10C0314D80020FA
:10583000090D09055C00640D03D0BC4204D11C03B2
:105840000AD800221B0D1B0501264B4009D44B40F2
:1058500003D58B4200D18242FFBD9942FCD19042D8
:10586000FFBD0B43DB1803431343F5D0C94349186D
:10587000FFBD0000FF07000000B5FFF7CFFF01D01C
:10588000002000BD012000BD00B5FFF7C7FF80412B
:1058900000BDC04600B5FFF7C1FF01D9002000BD23
:1058A000012000BD00B5FFF7B1FF01D9002000BD08
:1058B000012000BD00B5FFF7A9FF804100BD012018
:1058C00040054A00121804D85A00121801D80020C6
:1058D0007047012070470020704700000021002819
:1058E00005D17047C1174840401AFAD0C90713B50F
:1058F000064B1B6898470CBC441CA2401005120BB9
:105900000349091B09051943114310BD88230020D1
:105910001F04000010B54C00620D8023D218DB007C
:10592000D21A5B057E2A10DD9E3A13DACC170903E2
:10593000490819435242D140640001341532202AEB
:1059400005DAD0400843604310BD002010BD084672
:10595000604310BDC80FC018013810BD18B4044B07
:105960005B6AFC46019308BD24DFD9680010000083
:105970006822002018B4044BDB6FFC46019308BD7D
:105980007CDF5969001000006822002018B4044B25
:10599000DB6CFC46019308BD4CDF056B001000007A
:1059A0006822002018B4044B1B6DFC46019308BD0F
:1059B00050DFA16B001000006822002070B5132397
:1059C0001C78012C14D0012C14DC022C02DC1F4AA0
:1059D0001F4B9A641F48FFF74DFC1F4B186070BDAA
:1059E00099001A481A4A885001331F2BF8D9EAE760
:1059F0000023FAE71948FFF745FC05001848FFF7B0
:105A000041FC023803789B007F2B19DD802229009E
:105A10000F4801F099FC022CD7D1124B1A88B523FC
:105A20001B029A4209D1104B1A88104B9A4204D19A
:105A30000F4B1A880F4B9A42C7D00020FEF75AFB33
:105A40000D4B0E4A32210E48FEF7BAFA2D640010B3
:105A5000682200204C3300008823002053440000BB
:105A60005346000054380000D83800004946000072
:105A70009C3800005946000020BA0010B4BA00104B
:105A800074BA001070B504000D001600012A0ED083
:105A9000D20F92195210FFF7F5FF02000B00FFF72B
:105AA000A8FEF30703D522002B00FFF7A2FE70BD6E
:105AB000F0B5D6464F464646C0B588B014001D0026
:105AC0000E0D7605760D974B9846B044964B9B1B72
:105AD000009001910F0D7F0514D0944FBE4211D05C
